:020000040800F2
:10000000FFFF0020810E0008C50E0008C50E000885
:10001000C50E0008C50E0008C50E0008000000004F
:10002000000000000000000000000000C50E0008F5
:10003000C50E000800000000C50E0008C50E00082F
:10004000C50E0008C50E0008C50E0008C50E000844
:10005000C50E0008C50E0008C50E0008C50E000834
:10006000C50E0008C50E0008C50E0008C50E000824
:10007000C50E0008C50E0008C50E0008C50E000814
:10008000C50E0008C50E0008C50E0008C50E000804
:10009000C50E0008C50E0008C50E0008C50E0008F4
:1000A000C50E0008C50E0008C50E0008C50E0008E4
:1000B00069050008C50E0008C50E0008C50E000839
:1000C000C50E0008C50E0008C50E0008C50E0008C4
:1000D000C50E0008C50E0008C50E0008C50E0008B4
:1000E000C50E0008C50E0008C50E0008C50E0008A4
:1000F000C50E0008C50E0008C50E0008C50E000894
:10010000C50E0008C50E0008C50E0008C50E000883
:10011000C50E0008C50E0008C50E0008C50E000873
:10012000C50E0008C50E0008C50E0008C50E000863
:10013000C50E0008C50E0008C50E0008C50E000853
:10014000C50E0008C50E0008C50E0008C50E000843
:10015000C50E0008C50E0008C50E0008C50E000833
:10016000C50E0008C50E0008C50E0008C50E000823
:10017000C50E0008C50E0008C50E0008C50E000813
:08018000C50E0008C50E0008C1
:1001880040F20803C2F200031A780AB90120187075
:10019800704700BF40F20400C2F2000008B50368CF
:1001A8002BB140F20003C0F2000303B1984708BD29
:1001B800F0B5002583B0022400F03EFA00F00AF9F9
:1001C80000F076F900F0FAF900F0E0FD2046012190
:1001D80003222B460095019500F062F8204621463F
:1001E80001222B460194009500F05AF8012021467F
:1001F8002B4602460194009500F052F840F63C73F5
:10020800C0F6000340F20C069C68C2F2000640F6F5
:10021800B8370BE04FF4F0404FF6FF71013500F0AE
:1002280089F9022005F07F0500F072F94FF6FF7199
:100238004FF4F04000F07EF9606940F00403636118
:10024800022000F065F900F0E3F926F8150062696C
:10025800B84222F004016161DCD94FF6FF711E201B
:1002680000F068F941F2883000F052F900200146A8
:100278000246012300F0EAF84FF4E17000F0AEFD09
:1002880041F2883000F044F9002001460246034656
:1002980000F0DCF84FF4E17000F0C2FDBAE700BFEF
:1002A8002DE9F0014FF4605540F62874C4F20205B8
:1002B800C0F60004D5F830C054F820709DF81460DA
:1002C8009DF8188004EB80004CEA070440692C6311
:1002D8004C0003250768A540ED4305EA070C12FA10
:1002E80004F74CEA07020260426801278F4022EABD
:1002F800070C13FA01F141EA0C0343608268A64037
:1003080005EA02010E438660C36808FA04F41D403A
:100318002C43C460BDE8F001704700BF70B440F6DC
:10032800287C4FF46054C4F20204C0F6000C266B1B
:100338005CF820500CEB8003072946EA050020638F
:100348005B690DD81C6A03F1200089000F238B40DC
:1003580024EA03038A4043EA0201016070BC704743
:1003680003F1240008395C6AEFE700BF7AB940F668
:100378002873C0F6000303EB800C0120DCF814306E
:100388005A69884022EA000159615B69704740F662
:100398002873C0F6000303EB800C0120DCF814304E
:1003A8005A69884040EA020159615B69704700BF99
:1003B80040F62873C0F6000303EB800C0120DCF83C
:1003C8001420136910FA01F21A420CBF0020012010
:1003D800704700BF10B5002482B003200C21012211
:1003E800234600940194FFF75BFF03200D210122AF
:1003F800234600940194FFF753FF03200E210122A6
:10040800234600940194FFF74BFF03200F2101229C
:10041800234600940194FFF743FF02B010BD00BFCC
:100428004FF44063C4F20203586920F480525A61C1
:10043800596921F4005058615A6922F48041596180
:10044800586920F400425A61704700BFF8B5044665
:100458000D4616461F46FFF7E3FF3CB14FF44063D5
:10046800C4F20203586940F480525A614DB14FF406
:10047800406CC4F2020CDCF8142042F40051CCF8B1
:1004880014104EB14FF4406EC4F2020EDEF8143070
:1004980043F48040CEF814004FB14FF4406CC4F2DE
:1004A800020CDCF8142042F40041CCF81410F8BD1A
:1004B80010B54FF46053C4F202034FF08044186C37
:1004C80040F001021A64196E4FF4F04E41F0010039
:1004D8001866A4F828E0B4F80CC01FFA8CF242F0B1
:1004E80001014FF6FF70A181E06223881FFA83FEA5
:1004F8004EF0800C01221C20A4F800C0A28200F05B
:1005080035F8218888B240F00103238010BD00BF70
:100518004FF0804200235362516A40F20C13C2F23A
:1005280000038142196003D2516A8142FCD31960E9
:10053800704700BF4FF08043B3F800C02CF00102B1
:100548001204120C1A80188501220020D962586200
:100558009A82198888B240F001021A80704700BF59
:100568004FF080431A8A00221A82704700F11F0256
:1005780012EA200238BF0246521151014FF461437A
:10058800401ACEF20003012111FA00F043F82200CC
:10059800704700BF00F11F0212EA200238BF02466E
:1005A800521151014FF46143401ACEF20003203238
:1005B800012111FA00F043F82200704740F21013AD
:1005C800C2F200034FF4605C0022C4F2020C9A806D
:1005D8001A60DCF844104FF40053C4F2010341F4EC
:1005E8008070CCF84400012098605A60996841F402
:1005F80080609860DA601A61D96821F0380040F0AC
:100608003001D960DA621A630B225A63704700BF5F
:100618004FF40053C4F201031946986840F0804231
:100628009A600A684FF4005312F0020FC4F20103F3
:10063800F7D0D96C88B270474FF46053C4F2020304
:1006480041F6C442C0F2400200204FF480319A6063
:1006580058601A461960116811F4003FFBD07047C2
:1006680040F63C7CC0F6000CDCF80430586920F0F9
:1006780008025A61596921F0100058615A6922F03C
:1006880020015961586920F040025A61704700BF43
:100698002DE9F0414FF6FF7104461E20FFF74AFF8F
:1006A80040F63C73C0F6000340F650765D684FF0A4
:1006B8000208C0F60006002C0CBF2746072716F8CC
:1006C8002700002840F0B7816A6922F008016961B3
:1006D8006B69BB0006EB030C9CF80110002940F085
:1006E800B781686906EB030E20F010029EF802003D
:1006F8006A616A69002840F0B7816A6906EB030CF1
:1007080022F020019CF8033069616A69002B40F0EF
:10071800B781686920F040026A6101206B69FFF7C0
:10072800F7FE002C00F0B781013FFFB216F8270052
:10073800002840F0B7816B6923F0080169616B6993
:10074800BB0006EB030E9EF80110002940F0B781AC
:10075800686906EB030C20F010029CF802006A613D
:100768006A69002840F0B7816A6906EB030E22F037
:1007780020019EF8033069616A69002B40F0B78157
:10078800686920F040026A6101206B69FFF7C0FECA
:10079800002C00F0B781013FFFB216F827000028AF
:1007A80040F0B7816B6923F0080169616B69BB0090
:1007B80006EB030C9CF80110002940F0B78168692A
:1007C80006EB030E20F010029EF802006A616A69C7
:1007D800002840F0B7816A6906EB030C22F020017B
:1007E8009CF8033069616A69002B40F0B781686939
:1007F80020F040026A6101206B69FFF789FE002C36
:1008080000F0B781013FFFB216F82700002840F03A
:10081800B7816B6923F0080169616B69BB0006EB5E
:10082800030E9EF80110002940F0B781686906EBB5
:10083800030C20F010029CF802006A616A69002823
:1008480040F0B7816A6906EB030E22F020019EF89A
:10085800033069616A69002B40F0B781686920F04C
:1008680040026A6101206B69FFF752FE002C00F01C
:10087800B781013FFFB216F82700002840F0B78182
:100888006B6923F0080169616B69BB0006EB030C17
:100898009CF80110002940F0B781686906EB030E47
:1008A80020F010029EF802006A616A69002840F090
:1008B800B7816A6906EB030C22F020019CF803302B
:1008C80069616A69002B40F0B781686920F04002CD
:1008D8006A6101206B69FFF71BFE002C00F0B781ED
:1008E800013FFFB216F82700002840F0B7816B6976
:1008F80023F0080169616B69BB0006EB030E9EF8E3
:100908000110002940F0B781686906EB030C20F05C
:1009180010029CF802006A616A69002840F0B781F9
:100928006A6906EB030E22F020019EF80330696124
:100938006A69002B40F0B781686920F040026A615B
:1009480001206B69FFF7E4FD002C00F0B781013F3F
:10095800FFB216F82700002840F0B7816B6923F032
:10096800080169616B69BB0006EB030C9CF8011078
:10097800002940F0B781686906EB030E20F01002E9
:100988009EF802006A616A69002840F0B7816A69C6
:1009980006EB030C22F020019CF8033069616A69B8
:1009A800002B40F0B781686920F040026A6101209D
:1009B8006B69FFF7ADFD002C00F0B781013FFFB276
:1009C80016F82700002800F0B7816B69BF0006EB16
:1009D800070E43F0080169619EF801106B69002950
:1009E80000F0B7816A6906EB070C42F010036B61EF
:1009F8006B699CF80230002B00F0B7816869F71921
:100A080040F020026A61FA786B69002A00F0B78129
:100A1800696941F0400068616B6908F1FF3801209D
:100A28005FFA88F8FFF774FDB8F1000F7FF443AE62
:100A3800BDE8F04114E6686940F008036B616B6932
:100A4800BB0006EB030C9CF8011000293FF449AEEB
:100A58006A6906EB030E42F010019EF80200696114
:100A68006A6900283FF449AE696906EB030C41F056
:100A780020009CF8033068616A69002B3FF449AE96
:100A88006B6943F04001696101206B69FFF740FD24
:100A9800002C7FF449AE7A1CD7B216F8270000283C
:100AA8003FF449AE686940F008026A616B69BB00AF
:100AB80006EB030E9EF8011000293FF449AE6A695F
:100AC80006EB030C42F010019CF8020069616A69A8
:100AD80000283FF449AE696906EB030E41F0200097
:100AE8009EF8033068616A69002B3FF449AE6B6970
:100AF80043F04001696101206B69FFF709FD002C93
:100B08007FF449AE7A1CD7B216F8270000283FF4C4
:100B180049AE686940F008026A616B69BB0006EB80
:100B2800030C9CF8011000293FF449AE6A6906EBF2
:100B3800030E42F010019EF8020069616A690028FC
:100B48003FF449AE696906EB030C41F020009CF8BC
:100B5800033068616A69002B3FF449AE6B6943F062
:100B68004001696101206B69FFF7D2FC002C7FF41A
:100B780049AE7A1CD7B216F8270000283FF449AED0
:100B8800686940F008026A616B69BB0006EB030EF6
:100B98009EF8011000293FF449AE6A6906EB030C80
:100BA80042F010019CF8020069616A6900283FF46C
:100BB80049AE696906EB030E41F020009EF8033048
:100BC80068616A69002B3FF449AE6B6943F04001E4
:100BD800696101206B69FFF79BFC002C7FF449AE2B
:100BE8007A1CD7B216F8270000283FF449AE686986
:100BF80040F008026A616B69BB0006EB030C9CF8C5
:100C0800011000293FF449AE6A6906EB030E42F071
:100C180010019EF8020069616A6900283FF449AE34
:100C2800696906EB030C41F020009CF80330686109
:100C38006A69002B3FF449AE6B6943F04001696172
:100C480001206B69FFF764FC002C7FF449AE7A1C25
:100C5800D7B216F8270000283FF449AE686940F07B
:100C680008026A616B69BB0006EB030E9EF801106F
:100C780000293FF449AE6A6906EB030C42F0100103
:100C88009CF8020069616A6900283FF449AE696905
:100C980006EB030E41F020009EF8033068616A6994
:100CA800002B3FF449AE6B6943F0400169610120B4
:100CB8006B69FFF72DFC002C7FF449AE7A1CD7B284
:100CC80016F8270000283FF449AE686940F008028A
:100CD8006A616B69BB0006EB030C9CF801100029E4
:100CE8003FF449AE6A6906EB030E42F010019EF824
:100CF800020069616A6900283FF449AE696906EB38
:100D0800030C41F020009CF8033068616A69002BED
:100D18003FF449AE6B6943F04001696101206B699A
:100D2800FFF7F6FB002C7FF449AE7A1CD7B216F811
:100D3800270000287FF449AEBF00686906EB070E5C
:100D480020F008029EF801106A616B6900297FF49F
:100D580049AE696906EB070C21F0100068616B6900
:100D68009CF80230002B7FF449AE6B69F71923F029
:100D78002001FA7869616B69002A7FF449AE6A69D3
:100D880022F040036B616B6947E600BF10B5012094
:100D980082B0022402460321002300940194FFF745
:100DA8007FFA012002460421002300940194FFF7F2
:100DB80077FA012002460521002300940194FFF7E9
:100DC8006FFA012006210246002300940194FFF7E0
:100DD80067FA02B0BDE8104042E400BF70B50546AE
:100DE800FFF73EFCC5B1002001246E1EFFF750FC42
:100DF800AC4206EA040610D22EB100200224FFF706
:100E080047FCAC420AD20020FFF742FC0234002023
:100E1800FFF73EFCAC42F6D370BD70BD70BD00BF9D
:100E280070B50546FFF71CFCCDB1012420466E1EA7
:100E3800FFF72EFCAC4206EA040611D22EB120467A
:100E48000224FFF725FCAC420BD201202418013400
:100E5800FFF71EFC0120FFF71BFCAC42F5D370BD69
:100E680070BD70BD780F000800000020040000204D
:100E78000800002018010020002103E00A4B5B58FD
:100E88004350043109480A4B42189A42F6D3094A9A
:100E980002E0002342F8043B074B9A42F9D300F0E2
:100EA8000FF8FFF785F97047780F00080000002059
:100EB800040000200800002018010020FEE70000C0
:100EC80070B500240C4D0D4E761BB61003E055F896
:100ED800043B01349847B442F9D3094D00F014F8A3
:100EE800084E0024761BB61003E055F8043B013485
:100EF8009847B442F9D370BD700F0008700F00080E
:100F0800700F0008740F0008F8B500BFF8BC08BCE3
:100F18009E467047F8B500BFF8BC08BC9E467047AF
:100F280001000000020000000400000008000000AA
:100F380010000000000002400004024000080240C7
:100F4800000C0240001002400100000001010000F6
:100F58000001000000010100000001000000010183
:080F680000000001010000017E
:040F70009D010008D7
:040F740089010008E7
:040F78000000000075
:040F7C000000000071
:0400000508000E8160
:00000001FF
