:020000040800F2
:10000000FFFF00204508000891080008910800083B
:1000100091080008910800089108000800000000FD
:10002000000000000000000000000000910800082F
:1000300091080008000000009108000891080008DD
:10004000910800089108000891080008910800082C
:10005000910800089108000891080008910800081C
:10006000910800089108000891080008910800080C
:1000700091080008910800089108000891080008FC
:1000800091080008910800089108000891080008EC
:1000900091080008910800089108000891080008DC
:1000A00091080008910800089108000891080008CC
:1000B000BD04000891080008910800089108000894
:1000C00091080008910800089108000891080008AC
:1000D000910800089108000891080008910800089C
:1000E000910800089108000891080008910800088C
:1000F000910800089108000891080008910800087C
:10010000910800089108000891080008910800086B
:10011000910800089108000891080008910800085B
:10012000910800089108000891080008910800084B
:10013000910800089108000891080008910800083B
:10014000910800089108000891080008910800082B
:10015000910800089108000891080008910800081B
:10016000910800089108000891080008910800080B
:1001700091080008910800089108000891080008FB
:08018000910800089108000835
:1001880008B540F20800074BC2F200001B1A062B04
:1001980000D808BD40F20003C0F20003002BF8D0DD
:1001A8009847F6E70B00002008B540F2080040F237
:1001B8000803C2F20000C2F200031B1A9B1003EBF3
:1001C800D373591000D108BD40F20002C0F20002FA
:1001D800002AF8D09047F6E710B540F20804C2F2BA
:1001E8000004237873B9FFF7CBFF40F20003C0F295
:1001F80000032BB140F6E000C0F60000AFF300802A
:100208000123237010BD00BF08B540F20003C0F2FF
:1002180000034BB140F6E00040F20C01C0F60000CC
:10022800C2F20001AFF3008040F20400C2F2000005
:1002380003682BB140F20003C0F2000303B19847F2
:10024800BDE80840FFF7B0BFF0B4184C184D276B55
:1002580055F8206005EB80053E4368692663032551
:100268004C00066805FA04F5ED4302FA04F22E4044
:10027800164306604268012606FA01F603FA01F3FE
:1002880022EA06021A43426083689DF810202B4038
:1002980002FA04F213438360C3689DF814201D40DA
:1002A80002FA04F42C43C460F0BC704700380240E2
:1002B800FC08000870B40F4B0F4C1E6B54F820500C
:1002C80004EB8004072946EA0500186363690DD822
:1002D800203389001C680F2000FA01F024EA00008E
:1002E80002FA01F10143196070BC704724330839E0
:1002F800EFE700BF00380240FC080008094B03EB99
:10030800800043693AB95A69012000FA01F122EAEA
:100318000101596170475A69012000FA01F111433E
:1003280059617047FC080008064B03EB8000012266
:1003380043691B6902FA01F119420CBF0020012030
:10034800704700BFFC08000810B582B000240320E5
:100358000C210122234600940194FFF775FF032026
:100368000D210122234600940194FFF76DFF03201D
:100378000E210122234600940194FFF765FF0094A3
:10038800019403200F2101222346FFF75DFF02B0ED
:1003980010BD00BF30B4154C656925F48055656102
:1003A800656925F400556561656925F480456561D1
:1003B800656925F40045656118B1606940F48050AD
:1003C800606121B10949486940F40050486122B18F
:1003D800064A516941F48041516123B1034B5A697E
:1003E80042F400425A6130BC704700BF000C024022
:1003F800084B5A6922F480525A615A6922F4005211
:100408005A615A6922F480425A615A6922F40042B8
:100418005A617047000C0240134B1A6C42F00102FB
:1004280010B51A641A6E4FF0804442F001021A6641
:100438004FF4F0432385A3899BB243F00103A381C2
:100448004FF6FF73E36223889BB243F08003238057
:100458000123A3821C2000F033F823889BB243F0C9
:100468000103238010BD00BF003802404FF08042D6
:1004780000235362536A044983420B6003D2536AD0
:100488008342FCD30B607047240100204FF0804367
:100498001A8822F001021204120C1A800022188510
:1004A800D9625A6201229A821A8892B242F00102F3
:1004B8001A8070474FF0804300221A82704700BFAD
:1004C80000280346B8BF00F11F035B110122A0EB0F
:1004D800431002FA00F0024A42F82300704700BFB6
:1004E80000E100E000280346B8BF00F11F035B11DC
:1004F800A0EB4310012202FA00F02033014A42F82F
:100508002300704700E100E00F48104B104910B479
:10051800446C44F4807444640022012098605A605A
:1005280098680A6040F480609860DA601A61D86858
:100538008A8020F0380141F03001D960DA621A630C
:100548000B225A6310BC704700380240002001405B
:1005580028010020054A936843F08043936013689C
:100568009B07FCD5014BD86C80B270470020014036
:10057800064B074A00219A6059604FF480311A46A9
:10058800196013689B03FCD5704700BF0038024010
:10059800C41C4000094B5B685A6922F008025A6182
:1005A8005A6922F010025A615A6922F020025A61EF
:1005B8005A6922F040025A61704700BF10090008CA
:1005C8002DE9F8434FF6FF7180461E20FFF75EFFC6
:1005D800354B364E5C684FF00209B8F1000F14BF76
:1005E80007250025082728E0636943F008036361AD
:1005F800AB00F2185278002A2CD0626942F010023F
:100608006261F2189278002A2CD0F3186269DB78BC
:1006180042F020026261002B2CD0636943F0400352
:1006280063610120FFF722FFB8F1000F2CD17B1E78
:10063800013513F0FF07EDB22CD016F82530002B4A
:10064800D2D1636923F008036361AB00F2185278D2
:10065800002AD2D1626922F010026261F2189278FF
:10066800002AD2D1F3186269DB7822F02002626195
:10067800002BD2D1636923F0400363610120FFF7A7
:10068800F5FEB8F1000FD2D07B1E013D13F0FF0735
:10069800EDB2D2D109F1FF3919F0FF099DD1BDE8BA
:1006A800F843FFF777BF00BF1009000824090008C6
:1006B80010B582B0022401200246032100230094D1
:1006C8000194FFF7C1FD0120024604210023009494
:1006D8000194FFF7B9FD012002460521002300948B
:1006E8000194FFF7B1FD0120009401940621024610
:1006F8000023FFF7A9FD02B0BDE81040FFF74ABF8D
:1007080038B50546FFF746FF35B10024002001340F
:10071800FFF756FFAC42F9D338BD00BF38B50546E0
:10072800FFF738FF35B1002401202418FFF748FFF0
:10073800AC42F9D338BD00BF4C09000800000020C6
:10074800040000200800002030010020F0B583B02C
:1007580000240225FFF70CFFFFF7F6FDFFF75CFE0C
:10076800FFF7D2FEFFF7A4FF284601210322234604
:1007780000940194FFF768FD284629460122234684
:100788008DE83000FFF760FD01208DE83000294634
:1007980023460246FFF758FD264B274E9D6840F634
:1007A800B83709E001344FF470404AF6C00104F04C
:1007B8007F04FFF76BFE30BF4FF6FF714FF4F04038
:1007C800FFF764FE6B6943F004036B610220FFF7D7
:1007D8004DFEFFF7BFFE26F814000120FFF746FE86
:1007E8006A6936F8143022F00402BB426A61D9D92A
:1007F8004FF6FF711E20FFF749FE40F6C410FFF7C1
:1008080035FE0020014602460123FFF7C3FD4FF4E1
:10081800E170FFF775FF40F6C410FFF727FE0020D0
:10082800024603460146FFF7B5FD4FF4E170FFF7B6
:1008380075FFB7E71009000824000020002100F028
:1008480004B80C4B5B58435004310B480B4B42180F
:100858009A42FFF4F6AF0A4A00F003B8002342F8C0
:10086800043B084B9A42FFF4F9AF00F00FF8FFF78A
:100878006DFF70474C0900080000002004000020AC
:100888000800002030010020FFF7FEBF70B50024EB
:100898000D4B0E4D1E46ED1AAD1003E056F8242000
:1008A80001349047AC42F9D100F018F8084D094BD3
:1008B8000024ED1A1E46AD1003E056F8242001343A
:1008C8009047AC42F9D170BD4409000844090008BA
:1008D800480900084409000800000000F8B500BFF6
:1008E800F8BC08BC9E467047F8B500BFF8BC08BC09
:0408F8009E46704761
:1008FC0001000000020000000400000008000000DD
:10090C0010000000000002400004024000080240F9
:10091C00000C024000100240010000000101000028
:10092C0000010000000101000000010000000101B5
:08093C000000000101000001B0
:040944001102000894
:04094800E1010008C1
:04094C0000000000A7
:0409500000000000A3
:0400000508000845A2
:00000001FF
