:020000040800F2
:10000000FFFF0020310F0008750F0008750F000872
:10001000750F0008750F0008750F0008000000003C
:10002000000000000000000000000000750F000844
:10003000750F000800000000750F0008750F00081C
:10004000750F0008750F0008750F0008750F000880
:10005000750F0008750F0008750F0008750F000870
:10006000750F0008750F0008750F0008750F000860
:10007000750F0008750F0008750F0008750F000850
:10008000750F0008750F0008750F0008750F000840
:10009000750F0008750F0008750F0008750F000830
:1000A000750F0008750F0008750F0008750F000820
:1000B000FD050008750F0008C5050008750F00084C
:1000C000750F0008750F0008750F0008750F000800
:1000D000750F0008750F0008750F0008750F0008F0
:1000E000750F0008750F0008750F0008750F0008E0
:1000F000750F0008750F0008750F0008750F0008D0
:10010000750F0008750F0008750F0008750F0008BF
:10011000750F0008750F0008750F0008750F0008AF
:10012000750F0008750F0008750F0008750F00089F
:10013000750F0008750F0008750F0008750F00088F
:10014000750F0008750F0008750F0008750F00087F
:10015000750F0008750F0008750F0008750F00086F
:10016000750F0008750F0008750F0008750F00085F
:10017000750F0008750F0008750F0008750F00084F
:08018000750F0008750F00085F
:1001880040F20803C2F200031A780AB90120187075
:10019800704700BF40F20400C2F2000008B50368CF
:1001A8002BB140F20003C0F2000303B1984708BD29
:1001B80030B583B000F08AFA00F0E2F800F04EF9AA
:1001C80000F07CF900F044FA00F034FE0020044608
:1001D800022501460246012300F00EF928460121B6
:1001E800032223460094019400F030F8284629465B
:1001F800012223460195009400F028F801200246C8
:10020800294623460195009400F020F82A46204606
:100218000135082123460095019400F017F80220C3
:1002280000F07CF9002001460246034600F0E4F89D
:10023800082000F027FE022000F070F90020014697
:100248000246012300F0D8F8E9E700BF2DE9F001E4
:100258004FF4605540F6D874C4F20205C0F60004A5
:10026800D5F830C054F820709DF814609DF81880B7
:1002780004EB80004CEA070440692C634C0003251A
:100288000768A540ED4305EA070C12FA04F74CEAA3
:1002980007020260426801278F4022EA070C13FA1E
:1002A80001F141EA0C0343608268A64005EA0201B5
:1002B8000E438660C36808FA04F41D402C43C460EA
:1002C800BDE8F001704700BF70B440F6D87C4FF429
:1002D8006054C4F20204C0F6000C266B5CF820508F
:1002E8000CEB8003072946EA050020635B690DD8FB
:1002F8001C6A03F1200089000F238B4024EA0303C2
:100308008A4043EA0201016070BC704703F124008F
:1003180008395C6AEFE700BF7AB940F6D873C0F6CF
:10032800000303EB800C0120DCF814305A69884084
:1003380022EA000159615B69704740F6D873C0F63C
:10034800000303EB800C0120DCF814305A69884064
:1003580040EA020159615B69704700BF40F6D873F3
:10036800C0F6000303EB800C0120DCF814201369AD
:1003780010FA01F21A420CBF00200120704700BF9A
:1003880010B5002482B003200C21012223460094DA
:100398000194FFF75BFF03200D21012223460094FF
:1003A8000194FFF753FF03200E21012223460094F6
:1003B8000194FFF74BFF03200F21012223460094ED
:1003C8000194FFF743FF02B010BD00BF4FF4406334
:1003D800C4F20203586920F480525A61596921F421
:1003E800005058615A6922F480415961586920F4D3
:1003F80000425A61704700BFF8B504460D461646DC
:100408001F46FFF7E3FF3CB14FF44063C4F2020319
:10041800586940F480525A614DB14FF4406CC4F2AF
:10042800020CDCF8142042F40051CCF814104EB140
:100438004FF4406EC4F2020EDEF8143043F48040EC
:10044800CEF814004FB14FF4406CC4F2020CDCF843
:10045800142042F40041CCF81410F8BD10B54FF444
:100468006053C4F202034FF08044186C40F001025C
:100478001A64196E4FF4F04E41F001001866A4F8A2
:1004880028E0B4F80CC01FFA8CF242F001014FF6D4
:10049800FF70A181E06223881FFA83FE4EF0800C72
:1004A80001221C20A4F800C0A28200F0A9F821882B
:1004B80088B240F00103238010BD00BF4FF4605C98
:1004C800C4F2020C4FF40063DCF84020C4F20003CD
:1004D80042F004010F204FF47A72CCF840101885CE
:1004E800DA62998988B240F001029A81B3F800C0B3
:1004F8001FFA8CF141F08100188001221E209A8297
:1005080000F07EB84FF40062C4F20002B2F800C0F6
:100518002CF001010804030C1380704710B44FF04D
:10052800804240F20C03546AC2F2000301191C68AD
:1005380089B2A14203D9506A8842FCD3186010BC22
:10054800704700BF4FF08043B3F800C02CF00102A1
:100558001204120C1A8001221885D9629A8219880D
:1005680088B240F001021A80704700BF40F20C03C5
:10057800C2F2000300225A60704700BF40F20C012B
:10058800C2F200014FF0804C4B68DCF824204FF495
:100598007A7000FB0320704740F20C0CC2F2000C8A
:1005A80000214FF08042CCF80410536AC0189842DA
:1005B80002D9536A9842FCD8704700BF4FF40060D4
:1005C800C4F20000038A13F0010F06D040F20C01B8
:1005D800C2F200014B685A1C4A604FF4006CC4F226
:1005E800000CBCF8103023F001010A04100CACF820
:1005F800100070474FF0804300221A82704700BFF6
:1006080000F11F0212EA200238BF024652115101BE
:100618004FF46143401ACEF20003012111FA00F0B1
:1006280043F82200704700BF00F11F0212EA2002BF
:1006380038BF0246521151014FF46143401ACEF2BD
:1006480000032032012111FA00F043F8220070471C
:1006580040F21403C2F200034FF4605C0022C4F2BB
:10066800020C9A801A60DCF844104FF40053C4F26C
:10067800010341F48070CCF84400012098605A606E
:10068800996841F480609860DA601A61D96821F04D
:10069800380040F03001D960DA621A630B225A63DD
:1006A800704700BF4FF40053C4F20103194698681D
:1006B80040F080429A600A684FF4005312F0020F2B
:1006C800C4F20103F7D0D96C88B270474FF4605375
:1006D800C4F2020341F6C442C0F2400200204FF4C3
:1006E80080319A6058601A461960116811F4003F09
:1006F800FBD0704740F6EC7CC0F6000CDCF8043008
:10070800586920F008025A61596921F010005861AF
:100718005A6922F020015961586920F040025A6153
:10072800704700BF40F6EC73C0F600032DE9F041B6
:1007380041F200055C6806464FF00208C0F6000565
:10074800002E0CBF3746072715F82700002840F071
:10075800BF81626922F0080161616369BB0005EB32
:10076800030C9CF80110002940F0BF81606905EB7B
:10077800030E20F010029EF80200626162690028F0
:1007880040F0BF81626905EB030C22F020019CF860
:10079800033061616269002B40F0BF81606920F01D
:1007A800400262614FF47A706369FFF7F5FE002E2C
:1007B80000F0BF81013FFFB215F82700002840F084
:1007C800BF81636923F0080161616369BB0005EBC0
:1007D800030E9EF80110002940F0BF81606905EB07
:1007E800030C20F010029CF8020062616269002884
:1007F80040F0BF81626905EB030E22F020019EF8EC
:10080800033061616269002B40F0BF81606920F0AC
:10081800400262614FF47A706369FFF7BDFE002EF3
:1008280000F0BF81013FFFB215F82700002840F013
:10083800BF81636923F0080161616369BB0005EB4F
:10084800030C9CF80110002940F0BF81606905EB9A
:10085800030E20F010029EF802006261626900280F
:1008680040F0BF81626905EB030C22F020019CF87F
:10087800033061616269002B40F0BF81606920F03C
:10088800400262614FF47A706369FFF785FE002EBB
:1008980000F0BF81013FFFB215F82700002840F0A3
:1008A800BF81636923F0080161616369BB0005EBDF
:1008B800030E9EF80110002940F0BF81606905EB26
:1008C800030C20F010029CF80200626162690028A3
:1008D80040F0BF81626905EB030E22F020019EF80B
:1008E800033061616269002B40F0BF81606920F0CC
:1008F800400262614FF47A706369FFF74DFE002E83
:1009080000F0BF81013FFFB215F82700002840F032
:10091800BF81636923F0080161616369BB0005EB6E
:10092800030C9CF80110002940F0BF81606905EBB9
:10093800030E20F010029EF802006261626900282E
:1009480040F0BF81626905EB030C22F020019CF89E
:10095800033061616269002B40F0BF81606920F05B
:10096800400262614FF47A706369FFF715FE002E4A
:1009780000F0BF81013FFFB215F82700002840F0C2
:10098800BF81636923F0080161616369BB0005EBFE
:10099800030E9EF80110002940F0BF81606905EB45
:1009A800030C20F010029CF80200626162690028C2
:1009B80040F0BF81626905EB030E22F020019EF82A
:1009C800033061616269002B40F0BF81606920F0EB
:1009D800400262614FF47A706369FFF7DDFD002E13
:1009E80000F0BF81013FFFB215F82700002840F052
:1009F800BF81636923F0080161616369BB0005EB8E
:100A0800030C9CF80110002940F0BF81606905EBD8
:100A1800030E20F010029EF802006261626900284D
:100A280040F0BF81626905EB030C22F020019CF8BD
:100A3800033061616269002B40F0BF81606920F07A
:100A4800400262614FF47A706369FFF7A5FD002EDA
:100A580000F0BF81013FFFB215F82700002800F021
:100A6800BF816369BF0005EB070E43F008016161B0
:100A78009EF801106369002900F0BF81626905EBE7
:100A8800070C42F01003636163699CF80230002B85
:100A980000F0BF816069EF1940F020026261FA78C6
:100AA8006369002A00F0BF81616941F0400060611C
:100AB800636908F1FF384FF47A705FFA88F8FFF736
:100AC8006BFDB8F1000F7FF43BAEBDE8F04111E6D5
:100AD800606940F0080363616369BB0005EB030CC0
:100AE8009CF8011000293FF441AE626905EB030E42
:100AF80042F010019EF802006161626900283FF42B
:100B080041AE616905EB030C41F020009CF803300D
:100B180060616269002B3FF441AE636943F04001B4
:100B280061614FF47A706369FFF736FD002E7FF438
:100B380041AE7A1CD7B215F8270000283FF441AE21
:100B4800606940F0080262616369BB0005EB030E4F
:100B58009EF8011000293FF441AE626905EB030CD1
:100B680042F010019CF802006161626900283FF4BC
:100B780041AE616905EB030E41F020009EF8033099
:100B880060616269002B3FF441AE636943F0400144
:100B980061614FF47A706369FFF7FEFC002E7FF401
:100BA80041AE7A1CD7B215F8270000283FF441AEB1
:100BB800606940F0080262616369BB0005EB030CE1
:100BC8009CF8011000293FF441AE626905EB030E61
:100BD80042F010019EF802006161626900283FF44A
:100BE80041AE616905EB030C41F020009CF803302D
:100BF80060616269002B3FF441AE636943F04001D4
:100C080061614FF47A706369FFF7C6FC002E7FF4C8
:100C180041AE7A1CD7B215F8270000283FF441AE40
:100C2800606940F0080262616369BB0005EB030E6E
:100C38009EF8011000293FF441AE626905EB030CF0
:100C480042F010019CF802006161626900283FF4DB
:100C580041AE616905EB030E41F020009EF80330B8
:100C680060616269002B3FF441AE636943F0400163
:100C780061614FF47A706369FFF78EFC002E7FF490
:100C880041AE7A1CD7B215F8270000283FF441AED0
:100C9800606940F0080262616369BB0005EB030C00
:100CA8009CF8011000293FF441AE626905EB030E80
:100CB80042F010019EF802006161626900283FF469
:100CC80041AE616905EB030C41F020009CF803304C
:100CD80060616269002B3FF441AE636943F04001F3
:100CE80061614FF47A706369FFF756FC002E7FF458
:100CF80041AE7A1CD7B215F8270000283FF441AE60
:100D0800606940F0080262616369BB0005EB030E8D
:100D18009EF8011000293FF441AE626905EB030C0F
:100D280042F010019CF802006161626900283FF4FA
:100D380041AE616905EB030E41F020009EF80330D7
:100D480060616269002B3FF441AE636943F0400182
:100D580061614FF47A706369FFF71EFC002E7FF41F
:100D680041AE7A1CD7B215F8270000283FF441AEEF
:100D7800606940F0080262616369BB0005EB030C1F
:100D88009CF8011000293FF441AE626905EB030E9F
:100D980042F010019EF802006161626900283FF488
:100DA80041AE616905EB030C41F020009CF803306B
:100DB80060616269002B3FF441AE636943F0400112
:100DC80061614FF47A706369FFF7E6FB002E7FF4E8
:100DD80041AE7A1CD7B215F8270000287FF441AE3F
:100DE800BF00606905EB070E20F008029EF80110AD
:100DF8006261636900297FF441AE616905EB070C04
:100E080021F01000606163699CF80230002B7FF4C8
:100E180041AE6369EF1923F02001FA7861616369D3
:100E2800002A7FF441AE626922F04003636163697E
:100E38003FE600BF10B5012082B00224024603211C
:100E4800002300940194FFF701FA012002460421CF
:100E5800002300940194FFF7F9F9012002460521C7
:100E6800002300940194FFF7F1F9012006210246BE
:100E7800002300940194FFF7E9F902B0BDE810409F
:100E880038E400BF70B50546FFF734FCDDB100203B
:100E980001246E1EFFF746FCA54206F0010613D991
:100EA8002EB100200224FFF73DFCA5420DD90020F9
:100EB800FFF738FC601CC4B201340020E4B2FFF72D
:100EC80031FCA542F3D870BD70BD70BD70B5054644
:100ED800FFF710FCD5B101206E1E04460640FFF74F
:100EE80021FCA54213D92EB120460224FFF71AFC93
:100EF800A5420DD90120FFF715FC601CC4B20134CE
:100F08000120E4B2FFF70EFCA542F3D870BD70BD16
:100F180070BD00BF28100008000000200400002059
:100F2800080000201C000020002103E00A4B5B5849
:100F38004350043109480A4B42189A42F6D3094AE9
:100F480002E0002342F8043B074B9A42F9D300F031
:100F58000FF8FFF72DF9704728100008000000204F
:100F680004000020080000201C000020FEE700000C
:100F780070B500240C4D0D4E761BB61003E055F8E5
:100F8800043B01349847B442F9D3094D00F014F8F2
:100F9800084E0024761BB61003E055F8043B0134D4
:100FA8009847B442F9D370BD2010000820100008FB
:100FB8002010000824100008F8B500BFF8BC08BCD1
:100FC8009E467047F8B500BFF8BC08BC9E467047FF
:100FD80001000000020000000400000008000000FA
:100FE8001000000000000240000402400008024017
:100FF800000C024000100240010000000101000046
:1010080000010000000101000000010000000101D2
:081018000000000101000001CD
:041020009D01000826
:041024008901000836
:0410280000000000C4
:04102C0000000000C0
:0400000508000F31AF
:00000001FF
